:020000040000FA
:100000000C9462000C948A000C948A000C948A0070
:100010000C948A000C948A000C948A000C948A0038
:100020000C948A000C948A000C948A000C948A0028
:100030000C948A000C948A000C948A000C948A0018
:100040000C94EA010C948A000C945A020C94340229
:100050000C948A000C948A000C948A000C948A00F8
:100060000C948A000C948A000000000025002800EF
:100070002B0000000000240027002A0000000000E0
:1000800023002600290004040404040404040202DA
:100090000202020203030303030301020408102007
:1000A0004080010204081020010204081020000012
:1000B0000008000201000003040700000000000027
:1000C0000000560411241FBECFEFD8E0DEBFCDBF25
:1000D00011E0A0E0B1E0EAE5F9E002C005900D9280
:1000E000A035B107D9F722E0A0E5B1E001C01D922B
:1000F000A630B207E1F710E0C2E6D0E004C02197D5
:10010000FE010E94A504C136D107C9F70E948C02E6
:100110000C94AB040C940000AF92BF92CF92DF928C
:10012000EF92FF920F931F93CF93DF936C017B01AC
:100130008B01040F151FEB015E01AE18BF08C0173D
:10014000D10759F06991D601ED91FC910190F081B0
:10015000E02DC6010995892B79F7C501DF91CF9173
:100160001F910F91FF90EF90DF90CF90BF90AF90D5
:100170000895FC01538D448D252F30E0842F90E0AD
:10018000821B930B541710F0CF9608950197089592
:10019000FC01918D828D981761F0A28DAE0FBF2F5B
:1001A000B11D5D968C91928D9F5F9F73928F90E0B1
:1001B00008958FEF9FEF0895FC01918D828D981720
:1001C00031F0828DE80FF11D858D90E008958FEF5D
:1001D0009FEF0895FC01918D228D892F90E0805C26
:1001E0009F4F821B91098F739927089589E691E0AB
:1001F0000E94EA0021E0892B09F420E0822F089573
:1002000080E090E0892B29F00E94F60081110C9487
:1002100000000895FC01A48DA80FB92FB11DA35AA9
:10022000BF4F2C91848D90E001968F739927848F16
:10023000A689B7892C93A089B1898C918370806439
:100240008C93938D848D981306C00288F389E02DDA
:1002500080818F7D80830895EF92FF920F931F938B
:10026000CF93DF93EC0181E0888F9B8D8C8D981369
:100270001AC0E889F989808185FF15C09FB7F89475
:10028000EE89FF896083E889F989808183708064C1
:1002900080839FBF81E090E0DF91CF911F910F910C
:1002A000FF90EF900895F62E0B8D10E00F5F1F4F1B
:1002B0000F731127E02E8C8D8E110CC00FB607FC2A
:1002C000FACFE889F989808185FFF5CFCE010E94B8
:1002D0000A01F1CFEB8DEC0FFD2FF11DE35AFF4F1B
:1002E000F0829FB7F8940B8FEA89FB898081806246
:1002F000CFCFCF93DF93EC01888D8823B9F0AA8903
:10030000BB89E889F9898C9185FD03C0808186FDD0
:100310000DC00FB607FCF7CF8C9185FFF2CF80811F
:1003200085FFEDCFCE010E940A01E9CFDF91CF9189
:100330000895FC0101900020E9F73197AF01481BB7
:10034000590BBC0189E691E00C948C008F929F922E
:10035000AF92BF920F931F93CF93DF93CDB7DEB7CA
:10036000A1970FB6F894DEBF0FBECDBF19A24230E1
:1003700008F44AE08E010F5D1F4F842E912CB12CA2
:10038000A12CA50194010E948304E62FB901CA01A2
:10039000EA30F4F4E05DD801EE938D01232B242B99
:1003A000252B79F790E080E0109719F0CD010E949D
:1003B0009901A1960FB6F894DEBF0FBECDBFDF91B5
:1003C000CF911F910F91BF90AF909F908F90089504
:1003D000E95CE1CF1F920F920FB60F9211242F9379
:1003E0003F938F939F93AF93BF93809165019091BB
:1003F0006601A0916701B09168013091640123E02A
:10040000230F2D3758F50196A11DB11D20936401CE
:100410008093650190936601A0936701B093680192
:100420008091600190916101A0916201B09163019E
:100430000196A11DB11D8093600190936101A0936D
:100440006201B0936301BF91AF919F918F913F91F2
:100450002F910F900FBE0F901F90189526E8230F35
:100460000296A11DB11DD2CF1F920F920FB60F920F
:1004700011242F933F934F935F936F937F938F93A9
:100480009F93AF93BF93EF93FF9389E691E00E9410
:100490000A01FF91EF91BF91AF919F918F917F9151
:1004A0006F915F914F913F912F910F900FBE0F90E1
:1004B0001F9018951F920F920FB60F9211242F9331
:1004C0008F939F93EF93FF93E0917901F0917A01DD
:1004D0008081E0917F01F091800182FD1BC09081BD
:1004E000809182018F5F8F7320918301821741F089
:1004F000E0918201F0E0E759FE4F958F80938201F1
:10050000FF91EF919F918F912F910F900FBE0F90C0
:100510001F9018958081F4CF789484B5826084BD53
:1005200084B5816084BD85B5826085BD85B58160F7
:1005300085BD80916E00816080936E001092810075
:100540008091810082608093810080918100816030
:1005500080938100809180008160809380008091F1
:10056000B10084608093B1008091B000816080937D
:10057000B00080917A00846080937A0080917A0044
:10058000826080937A0080917A00816080937A0003
:1005900080917A00806880937A001092C100CCE943
:1005A000D0E0FE01249108E810E0F801849188234E
:1005B000C9F090E0880F991FFC01EE58FF4FA591FC
:1005C000B491FC01E859FF4F459154919FB7F894BD
:1005D0003C91822F809583238C93FA018081282B74
:1005E00020839FBFE0917901F0917A0182E08083BE
:1005F000E0917501F09176011082E0917701F09120
:10060000780180E1808310928101E0917D01F09179
:100610007E0186E08083E0917B01F0917C01808106
:1006200080618083E0917B01F0917C018081886012
:100630008083E0917B01F0917C01808180688083E0
:10064000E0917B01F0917C0180818F7D808320EBA4
:10065000822E20E0922E38EE432E33E0532E612C72
:10066000712C40E0A42E40E0B42E8FB7F894C090D7
:100670006501D0906601E0906701F09068018FBF3E
:10068000F4019491FE018491F8012491222309F44C
:1006900082C0992359F0933009F466C008F059C01C
:1006A000913009F467C0923009F468C0E22FF0E09D
:1006B000EE0FFF1FE458FF4FA591B4919C91892341
:1006C00031E020E009F430E0832F922FF82FF17011
:1006D0003F2E20910001211161C0892B09F461C0D6
:1006E00010925C0110925D0110925E0110925F0108
:1006F000109258011092590110925A0110925B0108
:1007000083E191E00E94990180E291E00E949901C9
:1007100080915C0190915D01A0915E01B0915F01BB
:100720008C0D9D1DAE1DBF1D409154015091550172
:100730006091560170915701841B950BA60BB70B66
:1007400080935C0190935D01A0935E01B0935F0183
:1007500048C09730B1F09830D1F0943009F0A6CF6E
:10076000909180009F7D03C0909180009F7790932F
:1007700080009CCF94B59F7794BD98CF94B59F7D12
:10078000FBCF9091B0009F779093B0008FCF909166
:10079000B0009F7DF9CF90E080E098CF892B09F0E1
:1007A000B7CF8091580190915901A0915A01B09111
:1007B0005B018C0D9D1DAE1DBF1D409154015091DC
:1007C00055016091560170915701841B950BA60B42
:1007D000B70B8093580190935901A0935A01B0939D
:1007E0005B01C0925401D0925501E0925601F09203
:1007F0005701309200018091500190915101A091D8
:100800005201B0915301A7019601281B390B4A0BE5
:100810005B0BDA01C901883E9340A105B105D0F117
:10082000C0925001D0925101E0925201F0925301D6
:1008300083E291E00E949901609158017091590101
:1008400080915A0190915B01A30192010E9483045F
:10085000CA01B9014AE00E94A60186E391E00E9424
:10086000990160915C0170915D0180915E019091B0
:100870005F01A30192010E948304CA01B9014AE009
:100880000E94A6018DE491E00E94990180E291E02E
:100890000E949901A114B10409F4E7CE0E94F60068
:1008A000882309F4E2CE0E940000DFCEE9E6F1E001
:1008B0001382128288EE93E0A0E0B0E084839583F7
:1008C000A683B78385E091E09183808385EC90E0F7
:1008D0009587848784EC90E09787868780EC90E00A
:1008E000918B808B81EC90E0938B828B82EC90E0FB
:1008F000958B848B86EC90E0978B868B118E128E75
:10090000138E148E0895A1E21A2EAA1BBB1BFD01A3
:100910000DC0AA1FBB1FEE1FFF1FA217B307E407DE
:10092000F50720F0A21BB30BE40BF50B661F771F36
:10093000881F991F1A9469F7609570958095909516
:100940009B01AC01BD01CF010895EE0FFF1F059083
:10095000F491E02D0994F894FFCF01000000002CE1
:10096000018C00B9007901EA00C800DC0054696D0F
:10097000657320726573657421000D0A004D616313
:1009800068696E652072756E2054696D653A200045
:1009900073207C204D616368696E65206F666620F8
:0A09A00054696D653A2000730000F1
:107E0000112484B714BE81FFF0D085E080938100F7
:107E100082E08093C00088E18093C10086E0809377
:107E2000C20080E18093C4008EE0C9D0259A86E02C
:107E300020E33CEF91E0309385002093840096BBD3
:107E4000B09BFECF1D9AA8958150A9F7CC24DD24C4
:107E500088248394B5E0AB2EA1E19A2EF3E0BF2EE7
:107E6000A2D0813461F49FD0082FAFD0023811F036
:107E7000013811F484E001C083E08DD089C08234E0
:107E800011F484E103C0853419F485E0A6D080C0E4
:107E9000853579F488D0E82EFF2485D0082F10E0AE
:107EA000102F00270E291F29000F111F8ED06801E7
:107EB0006FC0863521F484E090D080E0DECF843638
:107EC00009F040C070D06FD0082F6DD080E0C81688
:107ED00080E7D80618F4F601B7BEE895C0E0D1E017
:107EE00062D089930C17E1F7F0E0CF16F0E7DF06D8
:107EF00018F0F601B7BEE89568D007B600FCFDCFD4
:107F0000A601A0E0B1E02C9130E011968C91119780
:107F100090E0982F8827822B932B1296FA010C0160
:107F200087BEE89511244E5F5F4FF1E0A038BF0790
:107F300051F7F601A7BEE89507B600FCFDCF97BE46
:107F4000E89526C08437B1F42ED02DD0F82E2BD052
:107F50003CD0F601EF2C8F010F5F1F4F84911BD097
:107F6000EA94F801C1F70894C11CD11CFA94CF0C13
:107F7000D11C0EC0853739F428D08EE10CD085E9AC
:107F80000AD08FE07ACF813511F488E018D01DD067
:107F900080E101D065CF982F8091C00085FFFCCF94
:107FA0009093C60008958091C00087FFFCCF809118
:107FB000C00084FD01C0A8958091C6000895E0E648
:107FC000F0E098E1908380830895EDDF803219F02E
:107FD00088E0F5DFFFCF84E1DECF1F93182FE3DFCA
:107FE0001150E9F7F2DF1F91089580E0E8DFEE27F6
:047FF000FF270994CA
:027FFE00040479
:00000001FF
